:100000000C94AC000C94400B0C94190B0C94F20A59
:100010000C94CB0A0C94D4000C94D4000C94A40A35
:100020000C94D4000C94D4000C9403080C94720823
:100030000C94D4000C94D4000C94D4000C94D400F0
:100040000C94D4000C94D4000C94D4000C94D400E0
:100050000C94D4000C94D4000C94D4000C94B907E4
:100060000C94D4000C94D4000C94D4000C94D400C0
:100070000C94D4000C94D4000C94D4000C94D400B0
:100080000C94D4000C94D4000C94D4000C94D400A0
:100090000C94D4000C94D4000C94D4000C94D40090
:1000A0000C94D4000C94D4000C94D400080B0002DF
:1000B0000202000009040000010202000005240001
:1000C0001001052401010104240206052406000193
:1000D0000705810310004009040100020A00000026
:1000E00007050202400000070583024000000403E8
:1000F000090412010002EF0201404F1B06920001A9
:1001000001020301537061726B46756E005370619A
:10011000726B46756E2050726F204D6963726F006E
:1001200005010902A1010901A100850105091901C3
:1001300029031500250195037501810295017505B7
:10014000810305010930093109381581257F7508BA
:1001500095038106C0C0670B11241FBECFEFDAE004
:10016000DEBFCDBF11E0A0E0B1E0EAE6F2E202C0FE
:1001700005900D92A436B107D9F722E0A4E6B1E0CC
:1001800001C01D92A037B207E1F710E0CCEAD0E041
:1001900004C02197FE010E94EB0FCB3AD107C9F7AB
:1001A0000E94780D0C9433110C940000CF92DF92D2
:1001B000EF92FF920F931F93CF93DF93D901E80142
:1001C0006A01F9014217530714F06901FA01882303
:1001D00009F440C0CB016C157D050CF4C6019F01EC
:1001E0008E179F070CF49C01A417B50734F4CF01B8
:1001F000821B930B9C012C0D3D1D0D2C000CEE0859
:10020000FF08032E000C440B550B2C193D094E0919
:100210005F09AEEFBFEF0E949B0F9F01FF0F440BE2
:10022000550B2C193D094E095F090E947C0FDA011C
:10023000C9018F5F9F47A109B1098883998382E033
:1002400090E0DF91CF911F910F91FF90EF90DF90A1
:10025000CF90089590E080E0F4CFFC018091A3015D
:10026000882311F13FB7F89482E08093E900209150
:10027000F200822F90E01816190614F481E090E045
:10028000882339F0289844E64093A2014091F10078
:100290004083222339F02091F200211103C02BE684
:1002A0002093E8003FBF08958FEF9FEF0895CF930D
:1002B000DF931F92CDB7DEB76983DC01ED91FC912E
:1002C0000280F381E02D41E050E0BE016F5F7F4F7F
:1002D00009950F90DF91CF91089583E08093E90015
:1002E0008091F200882319F08AE38093E800089552
:1002F000CF93DF931F92CDB7DEB7FC018485958540
:1003000097FD08C02FEF3FEF358724870F90DF91CF
:10031000CF910895CE0101960E942D01019719F405
:10032000898190E0F3CF8FEF9FEFF0CF0F931F9372
:10033000CF93DF931F92CDB7DEB78C01FC0184858C
:10034000958597FF0BC0CE0101960E942D01019764
:1003500071F4898190E0F80195878487F80184859C
:1003600095850F90DF91CF911F910F9108958FEF99
:100370009FEFF1CFFC018485958597FD0BC09FB75A
:10038000F89482E08093E9008091F2009FBF90E0B2
:10039000019608959FB7F89482E08093E9008091D8
:1003A000F2009FBF90E008953FB7F89480919E01BE
:1003B00090919F01A091A001B091A10126B5A89BA9
:1003C00005C02F3F19F00196A11DB11D3FBFBA2FE7
:1003D000A92F982F8827BC01CD01620F711D811DA7
:1003E000911D42E0660F771F881F991F4A95D1F72C
:1003F0000895CF92DF92EF92FF920E94D4016B0199
:100400007C010E94D4016C197D098E099F09683E08
:10041000734081059105A8F3FF90EF90DF90CF9096
:10042000089529B1237030E08091640190916501B5
:10043000880F991F880F991F822B932B823091056B
:1004400049F08B30910531F08D30910519F08430F1
:10045000910551F440919701509198014B5F5F4F86
:1004600050939801409397018130910541F0AC0180
:10047000475051094230510510F00E9749F48091D0
:100480009701909198010597909398018093970117
:100490003093650120936401089540918D0150913E
:1004A0008E0120918B0130918C0142175307B4F4D7
:1004B0009091E8009570E1F39091E80092FD19C0E9
:1004C0008093F10080918D0190918E0101968F7340
:1004D0009927892B19F48EEF8093E80080918D0184
:1004E00090918E01019690938E0180938D0181E011
:1004F000089580E00895EF92FF920F931F93CF939A
:10050000DF93F82E192FE62E042F81E0860F880F37
:100510000E944D0283E00E944D02CF2DD12FEC0EA0
:10052000FD2EF11CCE15DF05B9F007FF13C0FE014B
:1005300084910E944D02182F80E00E944D02812379
:1005400021968111EFCFDF91CF911F910F91FF90F5
:10055000EF9008958881EDCF81E0F5CFDF92EF92A3
:10056000FF920F931F93CF93DF93D82E8A01EB0155
:100570007B01E40EF51ECE15DF0559F0D7FE12C043
:10058000FE0184910E944D0221968111F4CF0FEF5C
:100590001FEFC801DF91CF911F910F91FF90EF9056
:1005A000DF9008958881EECF2FB7F89487708093FD
:1005B000E9009091E800892F807295FF04C0909126
:1005C000F20080E4891B2FBF089583E00E94D402CB
:1005D00090E008957F928F929F92AF92BF92CF92B8
:1005E000DF92EF92FF920F931F93CF93DF93C82E6A
:1005F0008B017A018091A301811110C08FEF9FEFD1
:10060000DF91CF911F910F91FF90EF90DF90CF90EE
:10061000BF90AF909F908F907F90089580919101AF
:1006200080FF05C08091E00082608093E000CE2DC5
:10063000DF2DD12C8AEFB82E8C2D8770982E8C2D23
:100640008072882E8C2D8074782E9AE3A92E2097A4
:1006500019F4DD2009F44EC08C2D0E94D4028111C2
:1006600006C0BA94BB2051F20E94F901F0CF8C175A
:100670001D0611F00CF08C2F9FB7F8949092E900B2
:100680002091E80025FD02C09FBFE1CF282F30E078
:10069000C21BD30B882029F08150A0F01092F100EA
:1006A000FBCFF801C7FC0AC0815050F04191409344
:1006B000F100FACF44914093F10031968150D0F788
:1006C000020F131FDD2021F0A092E800D12CDCCF17
:1006D0008091E80085FD07C0A092E800DD24D39456
:1006E000209791F2F3CF209779F6772069F2A092C4
:1006F000E800CACF5D9884E680939001C70180CF5F
:10070000CF93DF93EC0180913201882331F083E0B5
:100710000E94EA021816190634F081E090E09B83EB
:100720008A8380E090E0DF91CF910895615030F0AE
:100730002091F100FC0120830196F8CF289884E6EF
:100740008093A20108958091830181110DC082E000
:1007500080937F0184E08093800110928201109247
:10076000810181E0809383018FE791E008950F93E9
:100770001F93CF93DF931F92CDB7DEB782E08983BB
:1007800042E450E06CEA70E080E80E94AE020E9411
:10079000A303DC0112960D911C910115110589F03E
:1007A000D801ED91FC910280F381E02DBE016F5FD5
:1007B0007F4FC801099597FD04C0F8010085118598
:1007C000ECCF89810F90DF91CF911F910F91089508
:1007D000CF93DF93FC01DB01818114963C91149748
:1007E000682F630F7727771F683071059CF5C281EA
:1007F000D381209739F5B383A283908112969C937D
:10080000129713968C93139715968C911597890FC1
:10081000808390E080E0831708F52181C22FD0E02B
:10082000BE0160507F4F16964D915C911797480F0F
:10083000591FEA014881EB0148832F5F218301960C
:10084000EACFEA014885598541155105D1F7B987A5
:10085000A887D3CF80E0DF91CF91089581E0FBCFCF
:100860001F93CF93DF9300D000D01F92CDB7DEB798
:1008700090911B0299838A836B831C82809105026D
:1008800081112CC011E01093F8011093F9018EEF43
:1008900091E09093FB018093FA011092FD01109278
:1008A000FC018BE591E09093F5018093F4011092A7
:1008B00000021092FF0110920202109201021093A6
:1008C00003021093040281EC8093FE010E94A303B3
:1008D00064EF71E00E94E8031093050281E08D83CC
:1008E00041E050E0BE016B5F7F4F8091F7010E94B5
:1008F000EA0297FD0AC08091F70144E050E0BE0192
:100900006F5F7F4F80640E94EA020F900F900F90FC
:100910000F900F90DF91CF911F9108950895DC0102
:10092000FB0191818081813A31F49D7F81E091309A
:1009300009F080E008958132E1F79B3029F482814B
:100940001F968C9381E008959A3099F78281509692
:100950008C93F8CFFC014281FB0124813581421741
:10096000130611F40C948F0480E00895DC01FB0160
:1009700088E4808389E4818384E482831D969C914A
:100980001D979F709F5B93831D968D919C9124E092
:10099000969587952A95E1F78F708F5B848385E024
:1009A0000895EF92FF920F931F93CF93DF93FB0174
:1009B0002081213889F52381223271F5DC011296DC
:1009C0004C91248135814217130631F58C01FC01CD
:1009D000C385D485F12CE12C209791F04C815D8169
:1009E0006A817B818E81811180E80E94AE028F3FF7
:1009F000980759F0E80EF91E0990D881C02DECCF68
:100A000081E0D8011F968C93C701DF91CF911F9190
:100A10000F91FF90EF90089590E080E0F6CFCF9394
:100A2000DF93CDB7DEB769970FB6F894DEBF0FBE80
:100A3000CDBFFC01DB018C918F5F8C939E012D5FFC
:100A40003F4F8DE0D9011D928A95E9F729E029836E
:100A500084E08A8391E09D8383E08E832A8721E26C
:100A60002B879C879D879F8722E2288B27E02B8BF3
:100A700025E02C8B8E8B20E430E0388F2F8B998FE4
:100A800082818B8395858685998B8A8B838180680B
:100A90008D8B49E150E0BE016F5F7F4F80E00E9487
:100AA000AE0269960FB6F894DEBF0FBECDBFDF91E0
:100AB000CF910895CF938091770181112CC0C1E02F
:100AC000C0936A01C0936B0180E791E090936D0140
:100AD00080936C0110926F0110926E018DE391E092
:100AE00090936701809366011092720110927101D8
:100AF0001092740110927301C0937501C093760136
:100B000081EC809370010E94A30366E671E00E946D
:100B1000E803C093770186E691E0CF910895FC0148
:100B20004281FB01248135814217130611F40C9494
:100B30008F0480E00895EF92FF920F931F93CF935D
:100B4000DF93FB012081213871F52381223259F591
:100B5000DC0112964C91248135814217130619F558
:100B6000EC010B851C85F12CE12C0115110589F098
:100B7000F801448155816281738180E80E94AE0250
:100B80008F3F980749F0E80EF91ED8010D911C918E
:100B9000ECCF81E08F87C701DF91CF911F910F913B
:100BA000FF90EF90089590E080E0F6CFCF93DF9331
:100BB000CDB7DEB769970FB6F894DEBF0FBECDBFD5
:100BC000FC01DB018C918F5F8C939E012D5F3F4F69
:100BD0008DE0D9011D928A95E9F729E0298384E007
:100BE0008A8391E09D8383E08E832A8721E22B878D
:100BF0009C879D879F8722E2288B27E02B8B25E00F
:100C00002C8B8E8B20E430E0388F2F8B998F828154
:100C10008B8395858685998B8A8B838180688D8B64
:100C200049E150E0BE016F5F7F4F80E00E94AE025D
:100C300069960FB6F894DEBF0FBECDBFDF91CF919E
:100C400008958F929F92AF92BF92CF92DF92EF92D0
:100C5000FF920F931F93CF93DF93CDB7DEB7ADB65F
:100C6000BEB680916B022DB73EB7281B31090FB677
:100C7000F8943EBF0FBE2DBF8DB79EB701966C0195
:100C8000E0903A02F12C8091360290913702D60121
:100C9000FC019F01281B390B2E153F051CF42191E7
:100CA0002D93F7CF80913B02882359F18091320236
:100CB0009091330228E097FD09C068E671E00E9438
:100CC000D70F6DE270E00E94D70F262F809134027B
:100CD0009091350268E097FD08C068E671E00E94D7
:100CE000D70F6DE270E00E94D70FF601EE0DFF1DE9
:100CF00090E1699FB0011124262B2083F7013196E2
:100D00007F0186010E0D1F1D20914002309141028E
:100D100040913E0250913F0260911C0270911D0271
:100D200080913C0281700E94D600E80EF91E860177
:100D30000E0D1F1D20914402309145024091420248
:100D40005091430260911E0270911F0280913C02FB
:100D5000869581700E94D600E80EF91E86010E0D60
:100D60001F1D209148023091490240914602509146
:100D70004702609120027091210280913C0282FB27
:100D8000882780F90E94D600E80EF91E86010E0D14
:100D90001F1D20914C0230914D0240914A0250910A
:100DA0004B02609122027091230280913C0283FBEE
:100DB000882780F90E94D600E80EF91E86010E0DE4
:100DC0001F1D209150023091510240914E025091CE
:100DD0004F02609124027091250280913C0282951D
:100DE00081700E94D600E80EF91E86010E0D1F1DAF
:100DF0002091540230915502409152025091530279
:100E0000609126027091270280913C0285FB882721
:100E100080F90E94D600E80EF91E86010E0D1F1DF6
:100E20002091580230915902409156025091570238
:100E300060912A0270912B0280913D0281700E9484
:100E4000D600E80EF91E86010E0D1F1D20915C02D2
:100E500030915D0240915A0250915B0260912802EC
:100E60007091290280913D02869581700E94D60082
:100E7000E80EF91E86010E0D1F1D209160023091B3
:100E8000610240915E0250915F0260912C0270916C
:100E90002D0280913D0282FB882780F90E94D600B6
:100EA000E80EF91E86010E0D1F1D2091640230917F
:100EB0006502409162025091630260912E0270912E
:100EC0002F0280913D0283FB882780F90E94D60083
:100ED0008E0D9F1D8601080F191F20916802309109
:100EE00069024091660250916702609130027091F0
:100EF000310280913D02829581700E94D6000E944D
:100F00005A054C0140916B0280916A0250E07A01CF
:100F1000FFEFEF1AFF0A2DB73EB72E193F090FB6A4
:100F2000F8943EBF0FBE2DBF0DB71EB70F5F1F4F0A
:100F3000EDB7FEB78183B601C80101960E942A1160
:100F4000F4018381A701B80180640E94EA020FB610
:100F5000F894BEBE0FBEADBEDF91CF911F910F9131
:100F6000FF90EF90DF90CF90BF90AF909F908F90C9
:100F700008951F920F920FB60F9211242F933F9353
:100F80008F939F93AF93BF9380919A0190919B0110
:100F9000A0919C01B0919D013091990123E0230F14
:100FA0002D3758F50196A11DB11D2093990180930D
:100FB0009A0190939B01A0939C01B0939D01809115
:100FC0009E0190919F01A091A001B091A101019675
:100FD000A11DB11D80939E0190939F01A093A0013C
:100FE000B093A101BF91AF919F918F913F912F91AC
:100FF0000F900FBE0F901F90189526E8230F0296B2
:10100000A11DB11DD2CF1F920F920FB60F921124C6
:101010008F939F938091E1009091E100937F909353
:10102000E10083FF0FC01092E90091E09093EB0084
:101030001092EC0092E39093ED001092A30198E0DF
:101040009093F00082FF22C093E09093E90090918A
:10105000F200992319F09AE39093E800909190019F
:10106000992341F0909190019150909390019111AA
:1010700001C05D9A9091A201992341F09091A20143
:1010800091509093A201911101C0289A84FF18C039
:101090008091E2008E7E81608093E2008091E10089
:1010A0008F7E8093E100809191018E7E806180939C
:1010B00091019F918F910F900FBE0F901F901895E7
:1010C00080FFF7CF8091E2008E7E80618093E20006
:1010D0008091E1008E7E8093E100809191018E7E6F
:1010E0008160E5CF1F920F920FB60F921124CF921D
:1010F000DF92EF92FF920F931F932F933F934F93A3
:101100005F936F937F938F939F93AF93BF93EF936F
:10111000FF93CF93DF93CDB7DEB76C97DEBFCDBF24
:101120001092E9008091E80083FF25C068E0CE01BD
:1011300045960E94960382EF8093E8008D8987FF91
:1011400039C09091E80090FFFCCF982F907609F07D
:1011500034C19E894F89588D2F89F88C911131C0E7
:10116000803861F5809192018093F1001092F10036
:101170008EEF8093E8006C960FB6F894DEBF0FBE3A
:10118000CDBFDF91CF91FF91EF91BF91AF919F9133
:101190008F917F916F915F914F913F912F911F910F
:1011A0000F91FF90EF90DF90CF900F900FBE0F90B8
:1011B0001F9018959EEF9093E800C7CF1092F10012
:1011C000D5CF913059F48111D3CF4130510581F6FB
:1011D000809192018D7F80939201CACF933049F420
:1011E0008111C6CF4130510519F68091920182607C
:1011F000F2CF953041F48091E80080FFFCCF206869
:101200002093E300B5CF963009F0A9C00B8D1C8D5B
:1012100022E01092E90010928E0110928D01F212DC
:101220002EC010928C0110928B010E94B7031F8276
:1012300099E09983FA8291E09E8390EA98879AEFE9
:10124000998720918D0130918E01275F3F4F3C831C
:101250002B838D831092E90010928E0110928D01E4
:1012600010938C0100938B0149E050E0BE016F5F49
:101270007F4F80E00E94AE020E94B70379CF1093A7
:101280008C0100938B010E94A303DC0112960D9147
:101290001C910115110509F451C1D801ED91FC9182
:1012A0000480F581E02DBE016B5E7F4FC80109957A
:1012B000009709F03EC1F80100851185EACFF3E0FF
:1012C000FF120EC08F89882309F440C0823061F478
:1012D00040E862E18DE091E00E947B02811148CFFD
:1012E00081E28093EB0047CF813029F440E868E049
:1012F00084E091E0F1CF833099F70E94A303DC01F1
:101300001296ED90FC908E010F5F1F4F6801E11463
:10131000F10479F0D701ED91FC910680F781E02D81
:10132000B801C7010995080F111DF701E084F18488
:10133000EECFD8011C92F60101900020E9F7319719
:10134000BF016C197D0940E0C601C6CF6EEE70E0AA
:10135000FB01449150E080E80E94AE0209CF973033
:1013600009F4BECF983021F481E08093F10000CFE2
:10137000993009F0FDCE837009F0B2CFE1E0F1E0E1
:1013800081E031E096E32191222371F08093E9001E
:101390003093EB00DF0111972C912093EC00909398
:1013A000ED008F5F873079F78EE78093EA00109227
:1013B000EA008F898093A301DBCE8B8D9C8D1092E8
:1013C000E90010928E0110928D0190938C01809310
:1013D0008B01898D811192C08E899D89913A49F442
:1013E000813209F07DCF47E050E06BE271E080E0B0
:1013F000B3CF913209F074CF833269F48F89988D1D
:10140000B0E0A0E08093070190930801A093090148
:10141000B0930A01ADCE803269F48091E80082FF7A
:10142000FCCF67E08BE291E00E9496038BEF809304
:10143000E8009ECE823209F09BCE8F8980933201E4
:10144000EEEFFFE7859194918B3F9C4D51F1E0E0E9
:10145000F8E080912B0190912C01A0912D01B09189
:101460002E01803B9440A105B105F1F48091320139
:1014700080FD1AC0EE3F8AE0F80789F587E797E715
:10148000918380838091600080938F0188E19BE04D
:101490000FB6F894A895809360000FBE90936000FB
:1014A00067CEEEEFFAE0D5CF8081918187379747FD
:1014B00009F05ECEA89580916000886180936000FD
:1014C00080918F0180936000EE3F2AE0F20789F05F
:1014D0008091FE0A9091FF0A9183808349CE80819A
:1014E00091818737980751F29093FF0A8093FE0A03
:1014F000C5CF1092FF0A1092FE0A3ACE0E94A303B3
:10150000DC0112960D911C910115110509F4E8CE2C
:10151000D801ED91FC910190F081E02DBE016B5E50
:101520007F4FC8010995811123CEF80100851185EF
:10153000EBCF181619060CF41BCED2CEF1E0FF1239
:10154000BECE62EF70E004CF1F920F920FB60F92E3
:1015500011242F933F934F935F936F937F938F93B8
:101560009F93AF93BF93EF93FF93E0911301F0919B
:1015700014010995FF91EF91BF91AF919F918F91C8
:101580007F916F915F914F913F912F910F900FBE7F
:101590000F901F9018951F920F920FB60F92112463
:1015A0002F933F934F935F936F937F938F939F936B
:1015B000AF93BF93EF93FF93E0911101F09112016C
:1015C0000995FF91EF91BF91AF919F918F917F917D
:1015D0006F915F914F913F912F910F900FBE0F90A0
:1015E0001F9018951F920F920FB60F9211242F93F0
:1015F0003F934F935F936F937F938F939F93AF939B
:10160000BF93EF93FF93E0910F01F09110010995C3
:10161000FF91EF91BF91AF919F918F917F916F91CA
:101620005F914F913F912F910F900FBE0F901F90A0
:1016300018951F920F920FB60F9211242F933F937C
:101640004F935F936F937F938F939F93AF93BF93CA
:10165000EF93FF93E0910D01F0910E010995FF9139
:10166000EF91BF91AF919F918F917F916F915F911A
:101670004F913F912F910F900FBE0F901F90189593
:101680001F920F920FB60F9211242F933F934F93F7
:101690005F936F937F938F939F93AF93BF93EF93DA
:1016A000FF93E0910B01F0910C010995FF91EF91EF
:1016B000BF91AF919F918F917F916F915F914F916A
:1016C0003F912F910F900FBE0F901F901895EF92A2
:1016D000FF920F931F93CF93DF93CDB7DEB7C65919
:1016E000D1090FB6F894DEBF0FBECDBF1092A7018F
:1016F0001092A60188EE93E0A0E0B0E08093A801EC
:101700009093A901A093AA01B093AB0189E491E061
:101710009093A5018093A4018FEF9FEF9093B10167
:101720008093B00110921B0280911302811113C0AB
:1017300010920E0210920D0280E291E0909310023E
:1017400080930F0286E390E090931202809311023F
:1017500081E0809313028091050281112CC011E079
:101760001093F8011093F9018EEF91E09093FB0133
:101770008093FA011092FD011092FC018BE591E03B
:101780009093F5018093F401109200021092FF01F2
:1017900010920202109201021093030210930402AD
:1017A00081EC8093FE010E94A30364EF71E00E942C
:1017B000E80310930502E091FF01F09100023097D9
:1017C00009F074C18DE092E0909300028093FF01D4
:1017D0008091010290910202209111023091120237
:1017E000820F931F9093020280930102109237029E
:1017F0001092360210923A0210923F0210923E026C
:101800008FEF93E090934102809340021092430245
:101810001092420290934502809344021092470234
:1018200010924602909349028093480210924B0214
:1018300010924A0290934D0280934C0210924F02F4
:1018400010924E02909351028093500210925302D4
:1018500010925202909355028093540210925702B4
:1018600010925602909359028093580210925B0294
:1018700010925A0290935D0280935C0210925F0274
:1018800010925E0290936102809360021092630254
:101890001092620290936502809364021092670234
:1018A00010926602909369028093680233E030934D
:1018B0006A024AE04093390210923B0230933C02A4
:1018C00010923D0225E0298381E08A8399E09B8381
:1018D0002C83E1EAED838E8355E85F83388729877F
:1018E0009A8759E15B878C8759E25D874E8755E17E
:1018F0005F87188A55E2598B8A8B75E77B8B8C8BB7
:1019000065E96D8B4E8B45E54F8B188E45E6498F0B
:101910001A8E51E85B8F42E04C8F7D8F8E8F6F8FD8
:10192000F6E0F8A359A33AA32BA38CA39DA38EA3FF
:1019300026E12FA388A780E889A786E28AA78FEFF0
:101940008BA78FE78CA77DA780E18EA76FA748ABF9
:10195000E9AB1AAA9BAB80E38CAB9DAB81E38EAB6A
:101960005FAB48AF80EC89AF8AAF8AE390E00E941A
:1019700005107C018AE3FE013196D70101900D929A
:101980008A95E1F787E090E00E9405108C01DC0168
:1019900011961C921E921396FC92EE9212978AE375
:1019A00090E015969C938E93149716961C920E9425
:1019B0005A05FC01A385B485109709F081C01487EE
:1019C000038785859685D80114962D913C91820FC9
:1019D000931F9687858790913902892F86958695E2
:1019E0008695977009F074C080933A0210913A027C
:1019F000812F90E0009711F481E090E00E940510A3
:101A0000909337028093360281E090913B029111CE
:101A100001C080E01C5F810F80936B0210921D0259
:101A200010921C0210921F0210921E0210922102AC
:101A3000109220021092230210922202109225028C
:101A4000109224021092270210922602109229026C
:101A50001092280210922B0210922A0210922D024C
:101A600010922C0210922F0210922E02109231022C
:101A7000109230028FEF9FEF9093330280933202E7
:101A8000909335028093340290E080E020913A02F6
:101A900028171906F9F0F4F0E0913602F0913702B8
:101AA000E80FF91F10820196F1CFFC01808191812E
:101AB0000097D9F78DE092E09183808389CEDC0195
:101AC0008D919C9111970097D1F70D931C9379CF2D
:101AD0008F5F8ACFCA56DF4F0FB6F894DEBF0FBEB6
:101AE000CDBFDF91CF911F910F91FF90EF9008959F
:101AF000789484B5826084BD84B5816084BD85B5E9
:101B0000826085BD85B5816085BD80916E008160F4
:101B100080936E001092810080918100826080939A
:101B2000810080918100816080938100809180009C
:101B30008160809380008091910082608093910009
:101B400080919100816080939100809190008160EC
:101B5000809390008091C10084608093C100809147
:101B6000C10082608093C1008091C1008160809338
:101B7000C1008091C30081608093C3008091C00048
:101B800082608093C0008091C20081608093C20017
:101B900080917A00846080937A0080917A008260DC
:101BA00080937A0080917A00816080937A0080919E
:101BB0007A00806880937A001092A30110929201BB
:101BC000109291018091D70081608093D70080EAC4
:101BD0008093D80089B5806189BD89B5826089BD4F
:101BE00009B400FEFDCF0E94F9018091D8008F7CDE
:101BF00080618093D8008091E000807F8093E00036
:101C00008091E1008E7E8093E1008DE08093E20080
:101C1000559A209A83E98BB987E785B980E488B91A
:101C20008EB981E0809338020E9421068FEF91E007
:101C300090931D0280931C028091380281110E94B2
:101C400021068FEF91E090931F0280931E028091F6
:101C5000380281110E94210621E132E030930E0109
:101C600020930D0180916900837F846080936900D7
:101C7000E99A30930C0120930B01809169008C7FCD
:101C8000816080936900E89A812C912C540183949F
:101C900030E0C32E30E0D32E8091970190919801CF
:101CA0000697ACF090E080E0209197013091980188
:101CB000263031055CF12091970130919801265032
:101CC000310930939801209397010196EDCF8091CF
:101CD0009701909198018B3F9F4F9CF590E080E099
:101CE00020919701309198012B3F3F4F64F4209150
:101CF0009701309198012A5F3F4F309398012093CC
:101D000097010196EDCF9195819591099093960158
:101D1000809395018091290190912A01892B51F19D
:101D200080919501909196012091930130919401B9
:101D300060E0232B21F060919501709196010E9443
:101D4000300495E1E92E91E0F92E10E000E00A3030
:101D5000110508F088C0F801E055F14F0C94EB0F25
:101D6000BC0EC30E010F080F100F170F1F0F330FFC
:101D7000270F2F0F80E0D8CF89B182958170C82FAF
:101D800050E0D52F07C086B186FB882780F9C82F81
:101D900080E0D82FF701808191818C179D0701F198
:101DA0000630110509F062C02091290130912A0105
:101DB00081E090E0232B11F090E080E090932A01E5
:101DC00080932901209193013091940181E090E06A
:101DD000232B11F090E080E0909394018093930185
:101DE000F701C193D1937F010F5F1F4F0A30110597
:101DF00009F0ADCFC114D10409F44ECF0E94000008
:101E00004BCFC9B1D0E0CC0FCD2FCC1FDD0BC2CF53
:101E10008CB186FB882780F9C82FE0E0DE2FBACF8F
:101E200083B182958170C82FF0E0DF2FB3CF83B1EB
:101E300085FB882780F9C82F20E0D22FABCF83B154
:101E400082FB882780F9C82F30E0D32FA3CF83B13E
:101E500086FB882780F9C82F40E0D42F9BCF83B121
:101E6000869581708CCFD0E0C0E094CF802F909188
:101E70003902209729F1091708F0B2CFE02FE69533
:101E8000E695E6952091360230913702E20FF32F66
:101E9000F11D8770A501940104C0220F331F441F58
:101EA000551F8A95D2F7922F909580818923808340
:101EB00080913802882309F493CF0E94210690CFA5
:101EC000091708F08DCFE02FE695E695E69520916D
:101ED000360230913702E20FF32FF11D8770A50112
:101EE000940104C0220F331F441F551F8A95D2F757
:101EF000C9012081822BDBCF052E97FB1EF40094B5
:101F00000E94930F57FD07D00E94A60F07FC03D035
:101F10004EF40C94930F50954095309521953F4F7A
:101F20004F4F5F4F089590958095709561957F4FC5
:101F30008F4F9F4F08950E94C80FA59F900DB49F8B
:101F4000900DA49F800D911D11240895A1E21A2ED9
:101F5000AA1BBB1BFD010DC0AA1FBB1FEE1FFF1F4D
:101F6000A217B307E407F50720F0A21BB30BE40B9D
:101F7000F50B661F771F881F991F1A9469F76095E4
:101F80007095809590959B01AC01BD01CF0108959E
:101F9000A29FB001B39FC001A39F700D811D1124AA
:101FA000911DB29F700D811D1124911D089597FB05
:101FB000072E16F4009407D077FD09D00E94F10F88
:101FC00007FC05D03EF4909581959F4F089570953C
:101FD00061957F4F0895EE0FFF1F0590F491E02D5E
:101FE0000994AA1BBB1B51E107C0AA1FBB1FA61760
:101FF000B70710F0A61BB70B881F991F5A95A9F7B2
:1020000080959095BC01CD0108950F931F93CF93B8
:10201000DF938230910510F482E090E0E0916E024F
:10202000F0916F0230E020E0B0E0A0E0309799F44A
:102030002115310509F44AC0281B390B243031051C
:10204000D8F58A819B816115710589F1FB01938324
:102050008283FE0111C040815181028113814817A2
:102060005907E0F04817590799F4109761F0129654
:102070000C93129713961C933296CF01DF91CF9158
:102080001F910F91089500936E0210936F02F4CF89
:102090002115310551F04217530738F0A901DB0132
:1020A0009A01BD01DF01F801C1CFEF01F9CF909393
:1020B0006F0280936E02CDCFFE01E20FF31F81937A
:1020C00091932250310939832883D7CF20916C0214
:1020D00030916D02232B41F420913501309136016E
:1020E00030936D0220936C022091330130913401C2
:1020F0002115310541F42DB73EB74091370150917C
:102100003801241B350BE0916C02F0916D02E2174F
:10211000F307A0F42E1B3F0B2817390778F0AC010A
:102120004E5F5F4F2417350748F04E0F5F1F5093E7
:102130006D0240936C02819391939FCFF0E0E0E0B9
:102140009CCFCF93DF930097E9F0FC013297138285
:102150001282A0916E02B0916F02ED0130E020E09A
:102160001097A1F420813181820F931F20916C027E
:1021700030916D022817390709F061C0F0936D02A4
:10218000E0936C02DF91CF910895EA01CE17DF074B
:10219000E8F54A815B819E0141155105B1F7E901DE
:1021A000FB83EA8349915991C40FD51FEC17FD07B2
:1021B00061F4808191810296840F951FE9019983D2
:1021C0008883828193819B838A83F0E0E0E012968A
:1021D0008D919C9113970097B9F52D913C91119792
:1021E000CD010296820F931F20916C0230916D02F7
:1021F0002817390739F6309751F510926F0210926F
:102200006E02B0936D02A0936C02BCCFD383C283E5
:1022100040815181840F951FC817D90761F44E5F23
:102220005F4F88819981480F591F518340838A816C
:102230009B81938382832115310509F0B0CFF09300
:102240006F02E0936E029ECFFD01DC01C0CF1382CE
:102250001282D7CFFB01DC0102C001900D924150E8
:0A2260005040D8F70895F894FFCF1E
:10226A0000C18081000000FFFFFFFF8E048E048EF4
:10227A00048E048E04010001000100010001000126
:10228A00000100000001000100010000E10000005F
:10229A0000000000007002800000000000AA040F85
:1022AA0005D104B6040000000057018003E5026D61
:1022BA0001BA0178019601000000008F05D6059B3E
:0422CA0005B6040051
:00000001FF
